{
  "contractName": "Chainlist",
  "abi": [
    {
      "constant": true,
      "inputs": [],
      "name": "getArticle",
      "outputs": [
        {
          "name": "_seller",
          "type": "address"
        },
        {
          "name": "_name",
          "type": "string"
        },
        {
          "name": "_description",
          "type": "string"
        },
        {
          "name": "_price",
          "type": "uint256"
        }
      ],
      "payable": false,
      "stateMutability": "view",
      "type": "function"
    },
    {
      "constant": false,
      "inputs": [
        {
          "name": "_name",
          "type": "string"
        },
        {
          "name": "_description",
          "type": "string"
        },
        {
          "name": "_price",
          "type": "uint256"
        }
      ],
      "name": "sellArticle",
      "outputs": [],
      "payable": false,
      "stateMutability": "nonpayable",
      "type": "function"
    },
    {
      "constant": false,
      "inputs": [
        {
          "name": "_name",
          "type": "string"
        },
        {
          "name": "_description",
          "type": "string"
        },
        {
          "name": "_price",
          "type": "uint256"
        }
      ],
      "name": "sellArticle",
      "outputs": [],
      "payable": false,
      "stateMutability": "nonpayable",
      "type": "constructor"
    }
  ],
  "bytecode": "0x6060604052341561000f57600080fd5b61009f6040805190810160405280600f81526020017f44656661756c742061727469636c6500000000000000000000000000000000008152506040805190810160405280601281526020017f5468697320697320616e2061727469636c650000000000000000000000000000815250670de0b6b3a76400006100a4640100000000026103b1176401000000009004565b6101c3565b336000806101000a81548173ffffffffffffffffffffffffffffffffffffffff021916908373ffffffffffffffffffffffffffffffffffffffff16021790555082600190805190602001906100fa92919061011e565b50816002908051906020019061011192919061011e565b5080600381905550505050565b828054600181600116156101000203166002900490600052602060002090601f016020900481019282601f1061015f57805160ff191683800117855561018d565b8280016001018555821561018d579182015b8281111561018c578251825591602001919060010190610171565b5b50905061019a919061019e565b5090565b6101c091905b808211156101bc5760008160009055506001016101a4565b5090565b90565b610510806101d26000396000f30060606040526004361061004c576000357c0100000000000000000000000000000000000000000000000000000000900463ffffffff168063c37218a614610051578063d260951514610185575b600080fd5b341561005c57600080fd5b61006461022e565b604051808573ffffffffffffffffffffffffffffffffffffffff1673ffffffffffffffffffffffffffffffffffffffff1681526020018060200180602001848152602001838103835286818151815260200191508051906020019080838360005b838110156100e05780820151818401526020810190506100c5565b50505050905090810190601f16801561010d5780820380516001836020036101000a031916815260200191505b50838103825285818151815260200191508051906020019080838360005b8381101561014657808201518184015260208101905061012b565b50505050905090810190601f1680156101735780820380516001836020036101000a031916815260200191505b50965050505050505060405180910390f35b341561019057600080fd5b61022c600480803590602001908201803590602001908080601f0160208091040260200160405190810160405280939291908181526020018383808284378201915050505050509190803590602001908201803590602001908080601f016020809104026020016040519081016040528093929190818152602001838380828437820191505050505050919080359060200190919050506103b1565b005b600061023861042b565b61024061042b565b60008060009054906101000a900473ffffffffffffffffffffffffffffffffffffffff1660016002600354828054600181600116156101000203166002900480601f0160208091040260200160405190810160405280929190818152602001828054600181600116156101000203166002900480156103005780601f106102d557610100808354040283529160200191610300565b820191906000526020600020905b8154815290600101906020018083116102e357829003601f168201915b50505050509250818054600181600116156101000203166002900480601f01602080910402602001604051908101604052809291908181526020018280546001816001161561010002031660029004801561039c5780601f106103715761010080835404028352916020019161039c565b820191906000526020600020905b81548152906001019060200180831161037f57829003601f168201915b50505050509150935093509350935090919293565b336000806101000a81548173ffffffffffffffffffffffffffffffffffffffff021916908373ffffffffffffffffffffffffffffffffffffffff160217905550826001908051906020019061040792919061043f565b50816002908051906020019061041e92919061043f565b5080600381905550505050565b602060405190810160405280600081525090565b828054600181600116156101000203166002900490600052602060002090601f016020900481019282601f1061048057805160ff19168380011785556104ae565b828001600101855582156104ae579182015b828111156104ad578251825591602001919060010190610492565b5b5090506104bb91906104bf565b5090565b6104e191905b808211156104dd5760008160009055506001016104c5565b5090565b905600a165627a7a723058205446bddce89ae5e9f3ecadc06019c9716fb65e8d33e669c000cec344381449790029",
  "source": "pragma solidity ^0.4.11;\r\n\r\ncontract Chainlist {\r\n\r\n //state\r\n address seller;\r\n string name;\r\n string description;\r\n uint256 price;\r\n\r\n  // constructor -> create a default article\r\n  function Chainlist() public {\r\n    sellArticle(\"Default article\", \"This is an article\",\r\n    1000000000000000000);\r\n  }\r\n\r\n  function sellArticle(string _name, string _description, uint256 _price) public {\r\n    seller = msg.sender;\r\n    name = _name;\r\n    description = _description;\r\n    price = _price;\r\n  }\r\n\r\n  function getArticle() public constant returns (\r\n    address _seller,\r\n    string _name,\r\n    string _description,\r\n    uint256 _price) \r\n  {\r\n    return(seller, name, description, price);\r\n  }\r\n}\r\n",
  "sourcePath": "C:\\Users\\nvorr\\Chainskills\\Training\\chainlist\\contracts\\Chainlist.sol",
  "compiler": {
    "name": "solc",
    "version": "0.4.18+commit.9cf6e910.Emscripten.clang"
  },
  "schemaVersion": "1.0.1",
  "updatedAt": "2017-12-26T01:15:40.763Z"
}